:020000040800F2
:1000000000000320C5350408490F00084B0F000805
:100010004D0F00084F0F0008510F000800000000AE
:10002000000000000000000000000000E18B00085C
:10003000530F000800000000818C0008E58C0008C8
:100040001536040815360408153604081536040854
:100050001536040815360408153604081536040844
:100060001536040815360408153604081536040834
:100070001536040815360408153604081536040824
:100080001536040815360408153604081536040814
:100090001536040815360408153604081536040804
:1000A00015360408153604081536040815360408F4
:1000B00015360408153604081536040815360408E4
:1000C00015360408153604081536040815360408D4
:1000D00015360408550F00081536040815360408AF
:1000E00015360408153604081536040815360408B4
:1000F00015360408153604081536040815360408A4
:100100001536040815360408153604081536040893
:100110001536040815360408650F0008153604085E
:100120001536040815360408153604081536040873
:100130001536040815360408153604081536040863
:100140001536040815360408153604081536040853
:100150001536040815360408153604081536040843
:100160001536040815360408153604081536040833
:1001700015360408750F0008153604080000000045
:100180001536040815360408153604081536040813
:100190001536040815360408153604081536040803
:0C01A000850F000815360408950F0008B4
:1001B0007BB972B90029BEBF00204FF0004106E0B4
:1001C00008BF00281CBF6FF000414FF0FF3000F067
:1001D00057B8ADF1080C6DE904CE002909DB002BFE
:1001E0001ADB43F073FBDDF804E0DDE9022304B021
:1001F0007047404261EB4101002B1BDB43F066FB83
:10020000DDF804E0DDE9022304B0404261EB410186
:10021000524263EB43037047524263EB430343F0A4
:1002200055FBDDF804E0DDE9022304B0404261EB58
:1002300041017047524263EB430343F047FBDDF853
:1002400004E0DDE9022304B0524263EB430370474C
:1002500053B94AB9002908BF00281CBF4FF0FF312D
:100260004FF0FF3000F00CB8ADF1080C6DE904CE92
:1002700043F02CFBDDF804E0DDE9022304B0704715
:10028000704700BF0348044B834202D0034B03B1C5
:1002900018477047140100201401002000000000DE
:1002A0000548064B1B1AD90F01EBA301491002D0D8
:1002B000034B03B1184770471401002014010020BC
:1002C0000000000010B5064C237843B9FFF7DAFFB1
:1002D000044B13B10448AFF300800123237010BD19
:1002E0001401002000000000C43B040808B5054BC1
:1002F0001BB105490548AFF30080BDE80840FFF792
:10030000CFBF00BF0000000018010020C43B04085C
:1003100010B58E464C6810E0C4EB041301EB0313D8
:100320005B0003F1504332F802CBA3F800C0013167
:10033000DEF808308B42EFDA0134DEF80C30A342ED
:1003400002DBDEF80010F3E71AF041FF10BD0000F9
:1003500008B50268044B9A4200D008BD04F052FF71
:10036000012043F005F9F8E70010004072B6FEE7FF
:1003700010B594B008AC30220021204643F00AFAB0
:100380000023039304930593069307930193204A54
:10039000116C41F080511164126C02F08052019294
:1003A000019A02931B4A136823F4404343F48043A9
:1003B0001360136803F440430293029B01230893E4
:1003C0004FF48033099302230E934FF480020F926F
:1003D0000422109248221192129303231393204671
:1003E00003F0E6FA78B90F23039302210491002366
:1003F00005934FF480520692079303A803F0C4FDBF
:1004000018B914B010BDFFF7B1FFFFF7AFFF00BF81
:10041000003802400070004010B582B004F0D8FEF1
:10042000FFF7A6FF00F046F800F08EF900F0B4F9EF
:1004300000F06EFA00F0A8FA00F02CFB00F06AFC65
:1004400000F0D8FC00F026FD0AF0B6FA0AF048F9F0
:100450004FF0504100200AF0F1F80AF08DF91BF03E
:10046000B3FC4FF4A071F0201AF0FEFE0446002207
:1004700000924FF416530B491AF03DFE0A492046EC
:100480001AF020FE1BF0BFF839F05EFD0446074964
:1004900039F066FD204615F058FD00F013F908F01C
:1004A00045F9FEE73001002011030008843C0408F0
:1004B000704700002DE9F04F8FB009AD002409947A
:1004C0000A940B940C940D940194624B1A6B42F0B5
:1004D00004021A631A6B02F004020192019A029458
:1004E0001A6B42F020021A631A6B02F02002029289
:1004F000029A03941A6B42F080021A631A6B02F09C
:1005000080020392039A04941A6B42F001021A6368
:100510001A6B02F001020492049A05941A6B42F0DD
:1005200002021A631A6B02F002020592059A0694FF
:100530001A6B42F040021A631A6B02F040020692F4
:10054000069A07941A6B42F010021A631A6B02F0B3
:1005500010020792079A08941A6B42F008021A6375
:100560001B6B03F008030893089BDFF8F490224606
:100570001621484604F0F0FA374F224680213846CB
:1005800004F0EAFADFF8DC8022464FF4405140469E
:1005900004F0E2FADFF8D0A022464FF4C041504602
:1005A00004F0DAFA1623099301260A960B940C94A8
:1005B0002946484604F08EF809960A9402230B93C4
:1005C0002946384604F086F848F2060309934FF4AA
:1005D000901BCDF828B00B942946384604F07AF8E1
:1005E000802309930A960B940C942946384604F00C
:1005F00071F820230993CDF828B00B94294648467A
:1006000004F068F8042309930A940B9429461348CC
:1006100004F060F84FF4006309930A940B942946A0
:10062000404604F057F84FF4405309930A960B9450
:100630000C942946404604F04DF84FF4C04309930A
:100640000A960B940C942946504604F043F80FB0D8
:10065000BDE8F08F00380240000002400004024074
:1006600000080240000C02400018024008B500F0EB
:1006700023FD012008F092F8FBE708B50DF0BAFE63
:10068000052008F08BF8F9E708B54FF4005104484D
:1006900004F07EFA4FF4FA7008F080F8F5E700BF36
:1006A000001802407047704770470000034B03601A
:1006B000034B0B6080231360704700BFB0280020FD
:1006C000B026002010B596B01B4C0DF13C0CA64690
:1006D000BEE80F00ACE80F009EE807008CE80700BA
:1006E00000210FA808F027F8144B18600DF1200C1A
:1006F00004F11C0EBEE80F00ACE80F009EE80700F6
:100700008CE80700002108A808F015F80C4B1860C9
:100710000DF1040E04F1380CBCE80F00AEE80F0038
:100720009CE807008EE80700002101A808F003F804
:10073000044B186016B010BDDC3B040810290020E3
:100740000C2900200829002008B50548054B036046
:1007500004F07EFD00B908BDFFF708FEFBE700BF0F
:1007600014290020003002400268094B9A4200D050
:10077000704782B000230193064B1A6B42F48052FB
:100780001A631B6B03F480530193019B02B0704703
:10079000003002400038024008B50D480D4B0360A0
:1007A000002343608360C3608362C3620363436367
:1007B00004F06AFD28B90121054804F05FFE18B96C
:1007C00008BDFFF7D3FDF6E7FFF7D0FDF8E700BF60
:1007D0001C29002000B0024002680E4B9A4200D053
:1007E000704700B583B000220192A3F5F043196B66
:1007F00041F4000119631B6B03F400030193019B97
:1008000005215A2004F0B2FC5A2004F0D3FC03B0B6
:100810005DF804FB00B002402DE9F04387B00023EF
:1008200001930293039304930593314B1B6813B117
:1008300007B0BDE8F0834FF001092D4BC3F80090DD
:10084000002700972B4B9A6B42EA09029A639B6B35
:1008500003EA09030093009B4FF63F0301934FF017
:100860000208CDF80880032604960C25059501ACF6
:100870002146214803F02EFFCDF80490CDF80880E2
:1008800003970496059521461C4803F023FF48F280
:1008900033130193CDF808800397049605952146FC
:1008A000174803F017FF4FF683730193CDF80880C4
:1008B0000397049605952146124803F00BFF4CF26E
:1008C00003730193CDF8088003970496059521469C
:1008D0000D4803F0FFFE60230193CDF808800397D5
:1008E000049605952146094803F0F4FEA0E700BFF1
:1008F0005C29002000380240001402400008024039
:100900000018024000100240000C024000040240A7
:1009100010B588B001A9002301934B608B60CB60B8
:100920000B614B618B611448144A026001224260E2
:1009300083600424C46010220261402242614FF4AB
:10094000C0728261C3614FF40062026243624FF47D
:1009500000538362022301930722029203940492BC
:10096000032205920693079305F000F808B908B032
:1009700010BDFFF7FBFCFAE760290020400100A052
:1009800008B5FFF749FF08BD08B51348134B0360CE
:10099000134B436000238360C3604FF480420261C5
:1009A00043618361C361036205F03AF850B90021E5
:1009B000094805F07FF940B90021074805F0BAF968
:1009C00030B908BDFFF7D2FCF1E7FFF7CFFCF3E742
:1009D000FFF7CCFCF5E700BF94290020005C004045
:1009E000A08601002DE9F04389B00023039304930E
:1009F0000593069307930268224B9A4202D009B0EE
:100A0000BDE8F083002500951F4C236B43F00403E1
:100A10002363236B03F004030093009B0195236B76
:100A200043F001032363236B03F001030193019B54
:100A30004FF4007303934FF01209CDF810904FF06C
:100A40000108CDF814800427079703AE31460F48FC
:100A500003F040FE4FF480730393CDF81090CDF86F
:100A60001480069507973146094803F033FE029536
:100A7000236C43F400032364236C03F40003029308
:100A8000029BBCE7005C00400038024000080240C6
:100A90000000024000B58FB03422002101A842F0CE
:100AA00079FE2848284B0360002343608360C360BD
:100AB000036109224261012282611D22C261032277
:100AC000026240F20D12426240F24312826240F230
:100AD0001712C26240F247120263FF2280F83420EC
:100AE00080F8353080F8363005F02AFA20BB002235
:100AF0000192F021029103924FF4A073049302201B
:100B00000590FF20069007924FF4C06008900720E0
:100B100009904FF050400A900B910C938DF83420BF
:100B20008DF835208DF8362001A9064805F062FBC6
:100B300028B90FB05DF804FBFFF718FCD7E7FFF703
:100B400015FCF6E7E8290020006801402DE9F04394
:100B500099B00446002113911491159116911791A3
:100B6000302207A842F016FE2268634B9A4202D058
:100B700019B0BDE8F0830823079332230B930223B7
:100B80000D9307A803F056FB002840F0B280002424
:100B900000945A4B5A6C42F080625A645A6C02F0CC
:100BA00080620092009A01941A6B42F020021A634C
:100BB0001A6B02F020020192019A02941A6B42F021
:100BC00001021A631A6B02F001020292029A039464
:100BD0001A6B42F002021A631A6B02F002020392CD
:100BE000039A04941A6B42F040021A631A6B02F0E3
:100BF00040020492049A05941A6B42F004021A63AC
:100C00001A6B02F004020592059A06941A6B42F0E0
:100C100008021A631B6B03F008030693069B4FF44C
:100C20008063139302261496159416940E27179733
:100C300013AD2946324803F04DFD41F65803139396
:100C4000149615941694179729462E4803F042FDE2
:100C5000032313931496159416944FF00909CDF8B5
:100C60005C90DFF8AC802946404603F033FD4FF43A
:100C7000706313931496159416941797294640465B
:100C800003F028FD4FF40C631393149615941694F7
:100C9000179708F5A0582946404603F01BFD4FF46E
:100CA000986313931496159416941797294616482B
:100CB00003F010FD48231393149615941694179778
:100CC0002946124803F006FD4FF4A05313931496DF
:100CD00015941694CDF85C902946404603F0FAFC32
:100CE00022460521582004F041FA582004F062FA07
:100CF0003EE7FFF73BFB4AE700680140003802404F
:100D0000001402400000024000080240000C0240B3
:100D10000004024008B50E480E4B03604FF4827386
:100D2000436000238360C360036143614FF400723A
:100D300082611822C2610362436283620A23C36232
:100D400005F00AFC00B908BDFFF710FBFBE700BF88
:100D5000902A00200050014000B589B00023039381
:100D600004930593069307930268144B9A4202D0AA
:100D700009B05DF804FB0021019103F568435A6C4A
:100D800042F480125A645A6C02F480120192019A61
:100D900002911A6B42F020021A631B6B03F02003CE
:100DA0000293029B4FF46073039302230493052381
:100DB000079303A9024803F08DFCD9E700500140D6
:100DC0000014024008B50268074B9A4200D008BDE3
:100DD000064A536C23F4801353644FF46071044843
:100DE00003F0E6FDF3E700BF005001400038024089
:100DF0000014024000B587B00023029303930493CC
:100E00000593009301931548154A0260436083607F
:100E10004FF6FF72C26003614361836100F072FCB0
:100E200090B94FF48053029302A90C4800F02CFDB6
:100E300068B90023009301936946084800F0A0FFB9
:100E400040B907B05DF804FBFFF790FAE9E7FFF758
:100E50008DFAEEE7FFF78AFAF3E700BFE82A0020F1
:100E6000000001400268094B9A4200D0704782B0EE
:100E700000230193064B5A6C42F001025A645B6CEA
:100E800003F001030193019B02B070470000014091
:100E90000038024008B50A480A4B03604FF4E133BA
:100EA000436000238360C36003610C22426183615D
:100EB000C36106F0C3F800B908BDFFF757FAFBE7B6
:100EC000302B00200010014010B588B000230393A0
:100ED0000493059306930793026803F1804303F597
:100EE00088339A4201D008B010BD0024019403F564
:100EF00094335A6C42F010025A645A6C02F0100299
:100F00000192019A02941A6B42F001021A631B6B60
:100F100003F001030293029B4FF4C0630393022387
:100F20000493032306930723079303A9054803F0BB
:100F3000D1FB22460521252004F018F9252004F0D4
:100F400039F9D0E700000240FEE7FEE7FEE7FEE7E2
:100F5000FEE7704708B5024806F098F908BD00BFE3
:100F6000302B002008B5024800F0B4FA08BD00BFDD
:100F7000782B002008B5024801F0A2FE08BD00BF92
:100F8000A82F002008B5024805F0C7F808BD00BF2B
:100F9000E829002008B5024804F0D2F908BD00BFD6
:100FA0001C29002000B583B0002200920D4B596C23
:100FB00041F480415964596C01F4804100910099D9
:100FC0000192196C41F0805119641B6C03F080533D
:100FD0000193019B0F216FF0010004F0C7F803B0EB
:100FE0005DF804FB0038024030B589B004460023A8
:100FF0000193214B1A6C42F010021A641B6C03F02F
:1010000010030193019B02A903A803F0F5F8069BC6
:10101000CBB903F0D1F80346184AA2FB03239B0C7B
:10102000013B1748174A026040F2E732C260436052
:10103000002303618360836100F064FB054630B1E7
:10104000284609B030BD03F0B7F84300E4E70C4888
:1010500000F0BAF905460028F2D1362004F0AAF8CB
:101060000F2C01D90125EBE700222146362004F0A0
:101070007DF8054B1C60E3E70038024083DE1B432C
:10108000782B0020001000400400002004290CD020
:10109000052902D0022904D07047064B03221A709A
:1010A0007047044B02221A707047024B01221A70DB
:1010B000704700BFC02B002008B500220B490C4828
:1010C00007F04AFF48B90B49094807F089FF38B9CA
:1010D000074807F0CAFF30B908BDFFF747F9F2E744
:1010E000FFF744F9F4E7FFF741F9F5E78D10000841
:1010F000C42B002010000020F0B589B0002303931A
:10110000049305930693079302681D4B9A4201D0FE
:1011100009B0F0BD002501951A4C236B43F0020382
:101120002363236B03F002030193019B4FF45043AD
:101130000393022304930C2307930DEB0307124E32
:101140003946304603F0C6FA4FF400530393049532
:1011500005953946304603F0BDFA0295236B43F0FE
:1011600000532363236B03F000530293029B2A4630
:1011700005214D2003F0FAFF4D2004F01BF8C7E7CE
:1011800000000440003802400004024008B5D0F8D6
:10119000DC0307F077FF08BD08B5D0F8DC0308F0E2
:1011A0007BFA08BD08B5D0F8DC0308F084FA08BD66
:1011B00008B5D0F8DC0308F09AFA08BD08B5D0F8F5
:1011C000DC0308F060FA08BD08B5D0F8DC0307F0CE
:1011D00062FF08BD90F8CC330BB10020704710B50A
:1011E00004461148C0F8DC43C4F8D0030F4B036039
:1011F0000C2343710123C3710023837102224272C5
:101200008372C3728373037400F09EFE40B9064874
:1012100001F03DFE0146204607F031FF002010BDE1
:10122000FFF7A4F8F3E700BFA82F00200000044058
:1012300008B5D0F8D00301F02FFE012804D0022811
:1012400004D020B1012002E0012000E0022008BD0E
:1012500008B5D0F8D00301F014FE08BD0020704797
:1012600008B5D0F8D00301F005FE08BD08B590F828
:10127000CC3323B1C82003F0D7FF002008BD0846B7
:1012800000F066F8F6E7D0F8D033C1EB011003EBBD
:101290008000C07D38B1C1EB011103EB810383F8FD
:1012A0003C2000207047C1EB011103EB810383F860
:1012B0003D20F6E708B503F0B7FF08BD022805D8C2
:1012C000DFE800F0050402000120704702207047AB
:1012D00008B5D0F8D00301F0A1FDFFF7EFFF08BD7E
:1012E00008B5D0F8D00301F0AEFDFFF7E7FF08BD69
:1012F00008B5D0F8D00301F0B8FDFFF7DFFF08BD57
:1013000010B584B0D0F8D003BDF8204002949DF809
:101310001C4001949DF81840009401F0CEFDFFF7A9
:10132000CDFF04B010BD10B584B0D0F8D0039DF847
:1013300024400394BDF820400294079C01949DF83A
:101340001840009400F058FEFFF7B8FF04B010BD3D
:1013500008B528B901221021024803F0FDFB08BDA1
:101360000022F8E70008024010B4036A046A24F07F
:1013700001040462846924F0F00C4CEA021223F0A8
:101380000A030B43826103625DF8044B704710B49B
:10139000036A046A24F010040462846924F4704C23
:1013A0004CEA023223F0A00343EA01138261036294
:1013B0005DF8044B7047836823F070030B4343F0E0
:1013C000070383607047000010B5044603683D4A78
:1013D000934237D0B3F1804F34D0A2F57C42934290
:1013E00030D002F5806293422CD002F580629342A5
:1013F00028D002F58062934224D002F580629342A5
:1014000020D002F5704293421CD002F570529342F4
:1014100018D002F58062934214D002F580629342A4
:1014200010D0A2F5983293420CD002F5806293421C
:1014300008D002F58062934204D04FF4E87122484C
:10144000FFF736F894F83D30012B37D1022384F8AA
:101450003D302268D36843F00103D3602368194A02
:10146000934220D0B3F1804F1DD0A2F57C4293422D
:1014700019D002F58062934215D002F58062934242
:1014800011D002F5784293420DD002F5705293428A
:1014900009D0A2F59432934205D01A6842F00102B5
:1014A0001A6000200BE09A6802F00702062A07D0B3
:1014B0001A6842F001021A60002000E0012010BD0D
:1014C0000020FCE700000140B43C0408704770476E
:1014D0007047704770B504460368DE681D6915F0F3
:1014E000020F10D016F0020F0DD06FF002021A6139
:1014F0000123037703689B6913F0030F5ED0FFF7A6
:10150000E6FF0023237715F0040F12D016F0040F26
:101510000FD023686FF004021A6102232377236837
:101520009B6913F4407F4FD02046FFF7D0FF002384
:10153000237715F0080F12D016F0080F0FD023688C
:101540006FF008021A61042323772368DB6913F024
:10155000030F40D02046FFF7BAFF0023237715F092
:10156000100F12D016F0100F0FD023686FF010027A
:101570001A61082323772368DB6913F4407F31D095
:101580002046FFF7A4FF0023237715F0010F02D0B8
:1015900016F0010F2DD115F0800F02D016F0800F3C
:1015A0002FD115F0400F02D016F0400F31D115F0B9
:1015B000200F02D016F0200F33D170BDFFF786FF49
:1015C0002046FFF785FF9CE72046FFF77FFF204678
:1015D000FFF77EFFABE72046FFF778FF2046FFF7D7
:1015E00077FFBAE72046FFF771FF2046FFF770FF4D
:1015F000C9E723686FF001021A612046FEF7A8FED2
:10160000C9E723686FF080021A61204600F045FCAC
:10161000C7E723686FF040021A612046FFF759FFC1
:10162000C5E723686FF020021A61204600F034FC01
:10163000C3E700000368324A904212D0B0F1804FF5
:101640000FD0A2F57C4290420BD002F5806290420E
:1016500007D002F58062904203D002F578429042B2
:1016600003D123F070034A681343254A90422AD0DD
:10167000B0F1804F27D0A2F57C42904223D002F5F2
:10168000806290421FD002F5806290421BD002F52A
:101690007842904217D002F57052904213D002F572
:1016A000806290420FD002F5806290420BD0A2F58A
:1016B0009832904207D002F58062904203D002F542
:1016C0008062904203D123F44073CA68134323F02D
:1016D00080034A6913438A68C2620A688262084AC0
:1016E000904203D002F58062904201D10A69026300
:1016F000026842F004020260012242610360704706
:1017000000000140002800F0A98010B504460368DD
:10171000534A934237D0B3F1804F34D0A2F57C4284
:10172000934230D002F5806293422CD002F5806261
:10173000934228D002F58062934224D002F5806261
:10174000934220D002F5704293421CD002F57052B1
:10175000934218D002F58062934214D002F5806261
:10176000934210D0A2F5983293420CD002F58062D9
:10177000934208D002F58062934204D040F21311E4
:101780003848FEF795FEA3683BB1102B05D0202BFF
:1017900003D0402B01D0602B17D123692BB1B3F5B7
:1017A000807F02D0B3F5007F15D12368B3F1804F5D
:1017B00017D02D4A934214D0E368013B4FF6FE72D6
:1017C00093428CBF002301230FE04FF48A71254818
:1017D000FEF76EFEE1E740F215112248FEF768FEC3
:1017E000E3E7E368003B18BF01232BB3A3690BB108
:1017F000802B27D194F83D3053B3022384F83D3039
:10180000214651F8040BFFF715FF012384F84630F9
:1018100084F83E3084F83F3084F8403084F841301A
:1018200084F8423084F8433084F8443084F84530FA
:1018300084F83D30002010BD4FF48B710948FEF74D
:1018400037FED3E740F217110648FEF731FED1E725
:1018500084F83C302046FFF705FBCEE701207047B7
:1018600000000140B43C0408000C004010B484683F
:1018700024F47F4C42EA03220A4342EA0C028260CB
:101880005DF8044B7047000038B590F83C30012BF0
:1018900000F0708204460D46012380F83C3002239C
:1018A00080F83D300B68702B19D012D8502B16D011
:1018B000602B14D0402B12D08BB1102B0FD0202BCB
:1018C0000DD0302B0BD041F2C341A448FEF7F0FD00
:1018D00005E0B3F5805F02D0B3F5005FECD122687C
:1018E000936823F47F4323F0770393602B68602B86
:1018F00000F096817AD8402B00F0D98135D8202B82
:1019000003D02ED80BB1102B29D12368944A9342CF
:101910001FD0B3F1804F1CD0A2F57C42934218D067
:1019200002F58062934214D002F58062934210D097
:1019300002F5784293420CD002F57052934208D0DF
:10194000A2F59432934204D041F235518348FEF718
:10195000AFFD29682068FFF72EFD002096E00120EA
:1019600094E0302BD1D0012090E0502B3CD1236863
:101970007B4A93421FD0B3F1804F1CD0A2F57C422A
:10198000934218D002F58062934214D002F580622F
:10199000934210D002F5784293420CD002F5705277
:1019A000934208D0A2F59432934204D041F20251FE
:1019B0006A48FEF77DFD6B68B3F5004F05D023B193
:1019C000022B02D00A2B40F01F81EB680F2B00F294
:1019D0002181EA6869682068FFF7C6FC5021206809
:1019E000FFF7E9FC002051E001204FE0B3F5805FF4
:1019F00055D0B3F5005F00F0B580702B4DD1236852
:101A0000574A93421FD0B3F1804F1CD0A2F57C42BD
:101A1000934218D002F58062934214D002F580629E
:101A2000934210D002F5784293420CD002F57052E6
:101A3000934208D0A2F59432934204D041F2D641A9
:101A40004648FEF735FDAB6843B1B3F5805F05D07E
:101A5000B3F5005F02D0B3F5405F6CD16B68B3F5AE
:101A6000004F04D01BB1022B01D00A2B69D1EB68C7
:101A70000F2B6CD8EB686A68A9682068FFF7F6FE40
:101A80002268936843F0770393600020012384F871
:101A90003D30002384F83C3038BD0120F6E7236850
:101AA0002F4A934200F04A81B3F1804F00F0488101
:101AB000A2F57C42934200F0458102F58062934298
:101AC00000F0428102F58062934200F03F8102F50E
:101AD0008062934200F03C8102F58062934200F004
:101AE000398102F57042934200F0368102F570525E
:101AF000934200F0338102F58062934200F030811E
:101B000002F58062934200F02D81A2F59832934253
:101B100000F02A8102F58062934200F0278102F5ED
:101B20008062934200F0248141F2CF410B48FEF7DE
:101B3000BFFC0020AAE741F2D9410848FEF7B8FCF3
:101B40008CE741F2DA410548FEF7B2FC8FE741F23B
:101B5000DB410248FEF7ACFC8CE700BFB43C040854
:101B6000000001402368844A934217D0B3F1804FAC
:101B700014D0A2F57C42934210D002F580629342C9
:101B80000CD002F58062934208D002F5784293426D
:101B900004D041F2EE417948FEF78AFCAB6843B1CC
:101BA000B3F5805F05D0B3F5005F02D0B3F5405FB9
:101BB00018D16B68B3F5004F04D01BB1022B01D0D4
:101BC0000A2B15D1EB680F2B18D8EB686A68A96847
:101BD0002068FFF74BFE2268936843F480439360CC
:101BE000002053E741F2F1416448FEF761FCE0E771
:101BF00041F2F2416148FEF75BFCE3E741F2F34159
:101C00005E48FEF755FCE0E741F205515B48FEF700
:101C10004FFCDAE641F206515848FEF749FCD8E697
:101C20002368554A93421FD0B3F1804F1CD0A2F5D0
:101C30007C42934218D002F58062934214D002F5A0
:101C40008062934210D002F5784293420CD002F5A4
:101C50007052934208D0A2F59432934204D041F2DC
:101C600012514648FEF724FC6B68B3F5004F04D0D0
:101C70001BB1022B01D00A2B0DD1EB680F2B10D812
:101C8000EA6869682068FFF782FB60212068FFF737
:101C900092FB0020FAE641F215513848FEF708FCA5
:101CA000EBE741F216513548FEF702FCE8E72368FE
:101CB000314A93421FD0B3F1804F1CD0A2F57C4231
:101CC000934218D002F58062934214D002F58062EC
:101CD000934210D002F5784293420CD002F5705234
:101CE000934208D0A2F59432934204D041F222519B
:101CF0002248FEF7DDFB6B68B3F5004F04D01BB143
:101D0000022B01D00A2B0DD1EB680F2B10D8EA68FB
:101D100069682068FFF728FB40212068FFF74BFB2C
:101D20000020B3E641F225511448FEF7C1FBEBE772
:101D300041F226511148FEF7BBFBE8E70020A5E67B
:101D40000020A3E60020A1E600209FE600209DE6FB
:101D500000209BE6002099E6002097E6002095E60B
:101D6000002093E6002091E600208FE600208DE61B
:101D700000208BE602208FE600000140B43C0408FE
:101D800038B504460D460368414A93421FD0B3F16B
:101D9000804F1CD0A2F57C42934218D002F580629D
:101DA000934214D002F58062934210D002F5806213
:101DB00093420CD002F58062934208D002F5704243
:101DC000934204D040F2A9713248FEF771FB2B68B0
:101DD0006BB1402B0BD04CD8202B08D0302B06D029
:101DE000102B04D040F2AA712A48FEF761FB6B6801
:101DF000802B01D0002B43D194F83C30012B45D0EF
:101E0000012384F83C30022384F83D30236859686C
:101E1000986821F070012A680A435A6023681C4AB6
:101E200093421AD0B3F1804F17D0A2F57C4293426F
:101E300013D002F5806293420FD002F58062934284
:101E40000BD002F57842934207D002F570529342CC
:101E500003D0A2F59432934204D120F080006A6846
:101E600002439A60012384F83D30002084F83C004E
:101E700038BD602BBBD0702BB9D0502BB2D1B6E798
:101E800040F2AB710348FEF713FBB5E70220EFE722
:101E900000000140EC3C040870477047F8B5066844
:101EA000346A04F00F07C4F34343C4F30A14022B4B
:101EB00000D0F8BD0546002CFBD0C7EB071300EBA4
:101EC0008303D96A0029F4D0C7EB071300EB83031F
:101ED0009A6B22445B6B9A4207D9C7EB071700EB5A
:101EE0008705042385F84C30E3E72246304601F0AD
:101EF00029F9C7EB071305EB8303DA6A2244DA6298
:101F00009A6B22449A6306EB4716D6F810251B8D70
:101F1000A342CED10B4B1340002BCAD0D6F80035CC
:101F200023F0804343F00043C6F80035C7EB0713A6
:101F300005EB830393F83C2082F0010283F83C20F8
:101F4000B7E700BF0000F81F00284ED030B583B0BF
:101F500004460368B3F1A04F06D0254A934203D04C
:101F60007B212448FEF7A4FA256894F8D533BBB149
:101F7000032384F8D533B5F1A04F17D0206801F0C2
:101F80007CF8237C8DF80030231D0ECB206801F0F7
:101F900025F870B1022384F8D533012003B030BD99
:101FA00084F8D4332046FFF7A7F8E1E70023A371B4
:101FB000E4E70121206801F0F9F820B1022384F858
:101FC000D5330120EAE7237C8DF80030231D0ECBAA
:101FD000206801F01DF918B9012384F8D533DDE735
:101FE000022384F8D5330120D8E70120704700BFD1
:101FF00000000440243D040838B59DF81040BDF8A9
:102000001850C1EB011C00EB8C0C8CF817208CF8DD
:10201000263094B9C1EB011C00EB8C0C4FF0030E81
:102020008CF82AE09DF81CE08CF819E0032B00F2F4
:10203000B180DFE803F00BA84C7AC1EB011C00EB88
:102040008C0C4FF0020E8CF82AE0EFE7012C40F0E8
:10205000A180F2B935B9C1EB011300EB8303012272
:1020600083F83D20C1EB011300EB830393F83D306F
:102070003BB9C1EB011300EB8303002283F82A2054
:1020800088E0C1EB011300EB8303022283F82A20CE
:1020900080E0C1EB011300EB83039B7E012B79D120
:1020A000C1EB011300EB830393F83C303BB9C1EB68
:1020B000011300EB8303002283F82A206AE0C1EBBE
:1020C000011300EB8303022283F82A2062E0AAB9FD
:1020D000C1EB011300EB830393F83D3033B9C1EB3F
:1020E000011300EB830383F82A2053E0C1EB0113B3
:1020F00000EB8303022283F82A204BE0C1EB01139B
:1021000000EB830393F83C303BB9C1EB011300EBC8
:102110008303002283F82A203CE0C1EB011300EB8B
:102120008303022283F82A2034E0AAB9C1EB011309
:1021300000EB830393F83D3033B9C1EB011300EB9F
:10214000830383F82A2025E0C1EB011300EB83030E
:10215000022283F82A201DE0C1EB011300EB830368
:1021600093F83C303BB9C1EB011300EB8303002231
:1021700083F82A200EE0C1EB011300EB8303022257
:1021800083F82A2006E0C1EB011300EB8303002251
:1021900083F82A20C1EB011300EB8303059ADA626E
:1021A0005D63002283F84C209A63597583F84D20B3
:1021B000C1EB0111890010310144827904310068BA
:1021C00001F048FA38BD30B583B004460568D5F84B
:1021D00040340193D5F840340093009B23F02E0344
:1021E0000093019B13F0020F07D0019B13F0010F26
:1021F00025D1009B43F002030093019B13F0080FCD
:1022000010D0009B43F008030093019B13F0040FD0
:102210002DD0637A022B15D0E379012B22D02046F2
:10222000FEF7CCFF019B13F0200F03D0009B43F07F
:1022300020030093009BC5F8403403B030BDFEF787
:10224000ABFFD6E7019B03F4C023B3F5802F04D086
:102250000121206801F05CF8E1E70221206801F02B
:1022600057F8DCE74EF66022C5F80424D7E720468D
:10227000FEF7AAFFD6E70000F8B505460C4606684B
:10228000304600F086FF10F0040F21D006EB441317
:102290000422C3F80825C4EB041305EB83030722CB
:1022A00083F84D202146286801F043F9214628682B
:1022B00000F06FFF10F4007F6CD02146286801F019
:1022C00038F906EB44164FF40073C6F80835F8BD2C
:1022D0002146286800F05DFF10F4807F11D006EBE6
:1022E00044134FF48072C3F80825C4EB041305EBC4
:1022F0008303082283F84D202146286801F019F94C
:10230000D4E72146286800F044FF10F0080F10D0F1
:1023100006EB44130822C3F80825C4EB041305EBAD
:102320008303062283F84D202146286801F001F935
:10233000BCE72146286800F02CFF10F4806F11D014
:1023400006EB44134FF48062C3F80825C4EB041372
:1023500005EB8303092283F84D202146286801F00C
:10236000E8F8A3E72146286800F013FF10F0800F7B
:102370009CD006EB44138022C3F80825C4EB041359
:1023800005EB8303072283F84D202146286801F0DE
:10239000D0F88BE72146286800F0FBFE10F0010F13
:1023A0007CD006EB441606F5A0672023BB60C4EB87
:1023B000041305EB8303DB7E012B1DD0AB794BB1FE
:1023C000C4EB041305EB83031A6B3969C1F31201E3
:1023D000521A9A63C4EB041305EB8303012283F8BA
:1023E0004D2000215964BA6093F82630032B14D88D
:1023F000DFE803F00D250D25C4EB041305EB830383
:102400000022DA767B6823F480337B60D6E72146AE
:10241000286801F08EF81023BB60AB79012B20D027
:10242000C4EB041305EB830393F83C30C4EB0414B2
:1024300005EB840483F0010384F83C3047E7D6F8C9
:10244000003543F00053C6F80035C4EB041305EB28
:102450008303012283F84C2021462846FEF7A8FE7C
:10246000DBE7C4EB041205EB8202936B128D13447D
:10247000013BB3FBF2F313F0010F3FF428AFC4EBC1
:10248000041305EB830393F83C30C4EB041405EB11
:10249000840483F0010384F83C3018E7214628685F
:1024A00000F077FE10F0200F1ED006EB441620231C
:1024B000C6F80835C4EB041305EB83039B7E012BA0
:1024C0007FF405AFC4EB041305EB83030122DA7636
:1024D000C4EB041305EB8303032283F84D2021464C
:1024E000286801F026F8F2E62146286800F051FE3F
:1024F00010F0020F00F0238106EB441606F5A062EF
:1025000002239360C4EB041305EB830393F84D306F
:10251000013B082B1ED801A151F823F041250008EA
:10252000CF2200089B260008F3260008FB250008A0
:102530006B25000881250008232700088125000855
:10254000C4EB041305EB8303022283F84D20012220
:1025500083F84C20C4EB041305EB830393F84C2061
:1025600021462846FEF724FEB1E6C4EB041305EB32
:102570008303022283F84D20052283F84C20E9E7EB
:10258000C4EB041305EB8303022183F84D10596C4F
:102590000131596402291BD9C4EB041305EB8303F1
:1025A000002159649B7E012B07D0C4EB041305EB7B
:1025B0008303042283F84C20CCE7C4EB041305EB1F
:1025C0008303D9761977536823F480335360ECE79B
:1025D000C4EB041305EB8303022283F84C2093F829
:1025E00026300BB19342B5D1D6F8003523F08043A5
:1025F00043F00043C6F80035ACE7C4EB041305EB29
:102600008303022183F84D10DB7E012BA2D1C4EBA2
:10261000041305EB830393F82630032B17D03C23D8
:1026200003FB0453022283F84C20C4EB041305EB94
:10263000830393F826300BB1022B8BD1D6F80035EB
:1026400023F0804343F00043C6F8003582E73C2185
:1026500001FB04518B6C01338B64022B16D90B46A2
:1026600000219964D9765B6C022B04D83C2303FBD0
:10267000045301211977536823F4803353603C23BA
:1026800003FB0453042283F84C20CEE73C2303FBD6
:102690000453022283F84C20C7E7C4EB041305EB74
:1026A0008303022183F84D10DB7E012B7FF452AFB0
:1026B000C4EB041305EB830383F84C10516841F419
:1026C00080315160D16841F04001D160D16821F082
:1026D0002001D16093F8263013B1022B7FF43AAF7A
:1026E000D6F8003523F0804343F00043C6F80035A8
:1026F00030E7C4EB041305EB8303022283F84D207B
:1027000083F84C2093F8263013B193427FF422AF24
:10271000D6F8003523F0804343F00043C6F8003577
:1027200018E7C4EB041305EB8303022283F84D2062
:102730005A6C01325A64042283F84C200AE721467D
:10274000286800F026FD10F0400F18D006EB441367
:102750004022C3F80825C4EB041305EB83030522CC
:1027600083F84D209B7E2BB9C4EB041305EB830348
:1027700000225A642146286800F0DBFEA7E52146C6
:10278000286800F006FD10F0100F3FF4A0ADC4EB78
:10279000041305EB830393F82630032B28D00BB1E9
:1027A000022B18D1C4EB041305EB830300225A64F7
:1027B000AB7933B1C4EB041305EB8303DB7E012B50
:1027C00009D13C2303FB0453042283F84D20214606
:1027D000286800F0AEFEC4EB041305EB8303DB7E38
:1027E000012B12D006EB44131022C3F808256EE526
:1027F0003C2303FB045300225A64042283F84D2037
:102800002146286800F095FEE5E7C4EB041305EBCC
:1028100083050023EB7606EB4413D3F8042522F45A
:102820008032C3F80425D3F80C2542F02002C3F807
:102830000C25D7E770B505460C460668304600F013
:10284000A8FC10F0040F10D006EB44160423C6F8C1
:102850000835C4EB041305EB8303072283F84D20EE
:102860002146286800F065FE70BD2146286800F00A
:1028700090FC10F0200F4AD006EB44162023C6F837
:102880000835C4EB041305EB83035B7E012B2DD0CD
:10289000C4EB041305EB83039B7E012BE4D1C4EB53
:1028A000041305EB8303DB7E002BDDD1C4EB0413A3
:1028B00005EB830393F82630012B05D0C4EB0413FA
:1028C00005EB83030122DA762601C4EB041305EB42
:1028D0008303032283F84D202146286800F029FE57
:1028E000361B05EB860600237364BDE7C4EB0413B7
:1028F00005EB830300225A76022283F84C20032240
:1029000083F84D202146286800F013FEC0E72146D9
:10291000286800F03EFC10F4007F0AD006EB441655
:102920004FF40073C6F808352146286800F001FE10
:102930009AE72146286800F02CFC10F0010F3BD0EC
:10294000C4EB041305EB830300225A642146286874
:1029500000F01FFC10F0400F0AD0C4EB041305EB8D
:10296000830301225A7606EB44134022C3F808255C
:10297000C4EB041305EB8303DB7E6BB1C4EB0413E0
:1029800005EB83030022DA7606EB4413D3F8042523
:1029900022F48032C3F8042506EB44160122C6F85F
:1029A0000825C4EB041305EB830383F84D2021466F
:1029B000286800F0BEFD57E72146286800F0E9FBD3
:1029C00010F0400F1ED0C4EB041305EB8303052267
:1029D00083F84D209B7E2BB9C4EB041305EB8303D6
:1029E00001225A76C4EB041305EB830300225A64D8
:1029F0002146286800F09DFD06EB44164023C6F8EA
:102A0000083531E72146286800F0C3FB10F0080FB5
:102A100010D006EB44130822C3F80825C4EB0413B6
:102A200005EB8303062283F84D202146286800F039
:102A300080FD19E72146286800F0ABFB10F0100F6D
:102A400020D0C4EB041305EB830300225A64042254
:102A500083F84D205B7E5BB9C4EB041305EB830365
:102A60001B7E2BB9C4EB041305EB830301225A76BA
:102A70002146286800F05DFD06EB44131022C3F8E0
:102A80000825F1E62146286800F083FB10F0800F4E
:102A900038D0AB79F3B1C4EB041205EB8202536C6E
:102AA00001335364022B20D83C2303FB045302223E
:102AB00083F84C2006EB4412D2F8003523F0804313
:102AC00043F00043C2F8003506EB44138022C3F8FC
:102AD0000825C9E63C2303FB0453072283F84D2055
:102AE0002146286800F025FDEEE73C2303FB045354
:102AF00000225A64042283F84C2021462846FEF71F
:102B000057FBE1E72146286800F043FB10F4806F93
:102B100010D03C2303FB0453092283F84D202146A7
:102B2000286800F006FD06EB44134FF48062C3F8FA
:102B3000082599E62146286800F02BFB10F0020FCB
:102B40003FF492AE06EB441606F5A06202239360B2
:102B50003C2303FB045393F84D30013B082B3FF615
:102B600083AE01A151F823F08D2B000869280008DD
:102B7000FB2B0008192C0008432C0008672C0008C8
:102B80007B2C0008692800087B2C00083C2303FBF1
:102B90000453022283F84D20012283F84C2093F83D
:102BA0002630023BDBB2934253D8A97941B93C238A
:102BB00003FB045393F83D2082F0010283F83D208B
:102BC000012946D13C2303FB04535B6B002B40D00F
:102BD0003C2202FB0452128D1344013BB3FBF2F37F
:102BE00013F0010F35D03C2303FB045393F83D2031
:102BF00082F0010283F83D202BE03C2303FB0453C9
:102C0000022283F84D20DB7E012B22D13C2303FBE3
:102C1000045383F84C201CE03C2303FB04530221A3
:102C200083F84D1083F84C10DB7E012B11D13C232F
:102C300003FB04530021D976536823F48033536097
:102C400007E03C2303FB0453022283F84D2083F862
:102C50004C203C2303FB045393F84C202146284688
:102C6000FEF7A6FA00E63C2303FB0453022283F896
:102C70004D20052283F84C20EBE73C2303FB045353
:102C8000022283F84D205A6C01325A64022A08D974
:102C90003C2303FB045300225A64042283F84C2093
:102CA000D7E73C2303FB0453022283F84C20D6F8D9
:102CB000003523F0804343F00043C6F80035C8E7F1
:102CC000F8B504460568284600F06CFA012800D0E3
:102CD000F8BD206800F059FA0028F9D0206800F00B
:102CE00054FA10F4001F03D023684FF400125A6105
:102CF000206800F04AFA10F4801F03D023684FF4D4
:102D000080125A61206800F040FA10F0806F03D002
:102D100023684FF080625A61206800F036FA10F0A4
:102D2000020F02D0236802225A61206800F02DFAB7
:102D300010F0005F08D023684FF000525A61D5F8B8
:102D4000403413F0010F25D0206800F01EFA10F077
:102D5000807F32D1206800F018FA10F0080F30D1CF
:102D6000206800F012FA10F0007F31D1206800F0E6
:102D70000CFA10F0100FABD02268936923F0100307
:102D800093612046FFF78AF82268936943F01003A5
:102D900093619DE71021284600F075F9284600F060
:102DA00097F9637A022B03D02046FEF7FBF9CBE7B5
:102DB0000121206800F0ACFAF6E72046FFF703FA9D
:102DC000C8E72046FEF7E2F9236808225A61C7E700
:102DD000206800F0A9FB0746002604E0F1B2204677
:102DE000FFF728FD01366379B34212D906F00F03CD
:102DF00027FA03F313F0010FF4D005EB4613D3F8D1
:102E0000003513F4004FE9D0F1B22046FFF734FA51
:102E1000E8E723684FF000725A61A7E790F8D433CF
:102E2000012B0ED010B50446012180F8D4130068A0
:102E300000F0AEFA206800F01AF9002084F8D403FC
:102E400010BD0220704790F8D433012B0BD010B581
:102E50000446012380F8D433006800F05FFD0020B1
:102E600084F8D40310BD0220704708B5006800F054
:102E700070FA08BDC1EB011100EB810090F84C0025
:102E80007047C1EB011100EB8100806B704708B502
:102E9000006800F0ABFA08BD08B5006800F09BFAC6
:102EA00008BDC1EB011200EB820200209076D076C3
:102EB00082F8250082F8240070472DE9F04F85B094
:102EC0001F469DF838A09DF83C90BDF840B090F8A2
:102ED000D433012B54D005460C461646D846012360
:102EE00080F8D433C1EB011300EB830300225A7640
:102EF0001F75597583F8269006F07F029A75FFF7C3
:102F0000D0FF16F0800F29D1C4EB041305EB830327
:102F10000022DA75286800F05EFAB9F1010F24D0BA
:102F2000C4EB041305EB830383F818A01FFA88F39E
:102F3000C4EB041205EB820213850293CDF80490D2
:102F4000CDF800A03B4632462146286800F054FAEE
:102F5000002385F8D43305B0BDE8F08FC4EB04132B
:102F600005EB83030122DA75D4E7BAF1010FD7D15B
:102F70000028D5D1BBF1BC0FD2D94FF0BC08CFE7A8
:102F80000220E8E782B000230193019B0133019303
:102F9000019BB3F1706F1CD80369002BF5DA0A238B
:102FA000019302E0019B013B0193019B002BF9D1AE
:102FB000036943F001030361019B01330193019B0A
:102FC000B3F1706F08D8036913F0010FF4D100203A
:102FD00000E0032002B070470320FBE784B010B587
:102FE000044603A880E80E009DF81130012B21D182
:102FF000A36B23F48033A363E36823F4840323F0F7
:103000004003E360E36823F44013E3609DF8183065
:10301000012B0AD02046FFF7B5FF9DF80E30012B9B
:103020001CD0BDE8104004B07047E36843F480133F
:10303000E360EFE7E36843F04003E3602046FFF717
:10304000A1FF9DF8153023B9A36B43F48033A3632C
:10305000E3E7A36B23F48033A363DEE7A36843F0C5
:103060000603A360A36843F02003A360D9E7836845
:1030700043F00103836000207047836823F001035D
:1030800083600020704782B000230193019B0133CD
:103090000193019BB3F1706F15D80369002BF5DA2A
:1030A00000230193890141F020010161019B01335B
:1030B0000193019BB3F1706F08D8036913F0200FDF
:1030C000F4D1002000E0032002B070470320FBE7AA
:1030D00082B000230193019B01330193019BB3F163
:1030E000706F13D80369002BF5DA002301931023C6
:1030F0000361019B01330193019BB3F1706F08D809
:10310000036913F0100FF4D1002000E0032002B097
:1031100070470320FBE710B59DF8084084B90333DE
:103120004FEA930E4FF0000C08E000EB023303F57A
:10313000805351F8044B1C600CF1010CF445F4D39E
:10314000002010BD10B5844608464FEA920E02F0EA
:103150000302002305E00CF58051096840F8041BC8
:1031600001337345F7D37AB10CF5805CDCF800408D
:103170000021CBB2DB0024FA03F300F8013B01315C
:10318000013A92B2002AF4D110BD42698069104020
:10319000704700EB411000F5A063D0F80805DB682C
:1031A00018407047406900F00100704738B5054687
:1031B000C36823F0C043C360012913D019BBC3689F
:1031C00043F08043C36000240A2002F02DF80A3443
:1031D0002846FFF7E7FF08B1C72CF5D9C82C14D053
:1031E000002038BDC36843F00053C36000240A20A8
:1031F00002F01AF80A342846FFF7D4FF0128EDD070
:10320000C72CF4D9EAE70120EBE70120E9E7000049
:1032100084B038B5044605A880E80E000023C4F841
:10322000003EA36B43F40013A363A36B23F40023BA
:10323000A363A36B23F48023A363E36813F0400F1D
:1032400011D19DF81730012B06D0D4F8003423F0AB
:103250000403C4F800340CE0D4F8003443F0040351
:10326000C4F8003405E0D4F8003423F00403C4F8B3
:10327000003410212046FFF706FF054600B1012566
:103280002046FFF725FF00B10125002209E004EBED
:1032900042134FF0FF31C3F808150021C3F80C1595
:1032A00001329DF815309342F1D80023A3614FF00D
:1032B000FF336361124B9C4217D08023636203F596
:1032C000C003A3620F4BC4F800319DF816301BB940
:1032D000A36943F01003A361A2690B4B1343A361DD
:1032E0002846BDE8384004B070474FF4007363626D
:1032F00003F18073A362054BC4F80031E5E700BF1A
:1033000000000440E0004000080020A30003E000AB
:1033100000F5806CD0F8003423F00303C0F80034CB
:10332000D0F8003401F003021343C0F8003401293F
:1033300007D002290BD141F27073CCF80430002081
:1033400070474BF68033CCF80430002070470120E2
:10335000704730B583B0044600250195D0F840345D
:103360000193019B23F02E030193019B43F480738F
:10337000C0F84034642001F057FF019B23F48073B0
:10338000C4F840340A2001F04FFF284603B030BD96
:1033900082B000230193D0F840340193019B23F0C5
:1033A0002E030193019B13F4805F01D101290CD0FE
:1033B000019B13F4805F05D021B9019B23F4805356
:1033C000C0F84034002002B07047019B43F48053A2
:1033D000C0F84034ECE782B000230193D0F84034C9
:1033E00001930198C0F3414002B0704700F580603E
:1033F000806880B2704700002DE9F84391461C4672
:103400009DF8245000EB411606F5A0634FF0FF3203
:103410009A60032D7AD8DFE805F0026B025D40F276
:103420009D42DA6019F0800F48D13E4A90424BD05D
:10343000002700225A60DA6842F00202DA60D0F80F
:10344000183401F00F0101228A401343C0F81834E8
:10345000836943F00073836119F0800F58D14FF0F6
:103460000008FFF7B8FF9DF82030022B53D0002250
:10347000A30503F0FE534FEAC92909F4F04943EAD2
:103480000903A90401F440210B43BDF82810C1F33E
:103490000A010B4343EA0803134343F48013C6F8BD
:1034A0000035032D01D0012D05D1D6F8003543F0AC
:1034B0000053C6F800353846BDE8F883DA6842F4B0
:1034C0008072DA600027B4E7DA6842F06002DA60FE
:1034D0000027AEE740F29D62DA6019F0800F01D15B
:1034E0000027A6E7DA6842F48072DA600027A0E7D6
:1034F00040F22522DA6019F0800F01D1002798E709
:10350000DA6842F4C072DA60002792E7012790E798
:103510004FF40048A5E7022802D04FF40032A7E795
:103520000022A5E70000044000F58060406980B2F9
:10353000704770B483B00023019300EB411101F593
:10354000A062D1F80035C3F38143D1F80055546827
:10355000866816F0200F08D0ED0FE40F2CB9002D6F
:103560005AD0012B58D0032B56D01BB3022B21D09D
:10357000D1F8003543F08043C1F80035D0F810345D
:1035800013F47F0F4CD1D1F8003523F00043C1F87C
:103590000035D1F8003543F00043C1F80035019BF8
:1035A00001330193019BB3F57A7F35D81368002B63
:1035B000F5DB31E0D1F8003543F08043C1F8003548
:1035C000836813F0200F21D1C36A13F47F0F16D143
:1035D000D1F8003523F00043C1F80035D1F80035AB
:1035E00043F00043C1F80035019B01330193019B77
:1035F000B3F57A7F10D81368002BF5DB0CE0D1F817
:10360000003543F00043C1F8003505E0D1F800353E
:1036100043F00043C1F80035002003B070BC704790
:10362000D1F8003543F00043C1F80035F4E700005D
:1036300000EB4110064AC0F81025D0F8003523F001
:10364000804343F00043C0F800350020704700BFBE
:103650000000088070B584B04B789D4CA04216D015
:103660008C79012C2DD00C6A002C65D08D8A04EB4E
:10367000050C0CF1FF3CBCFBF5FC1FFA8CFCBCF507
:10368000807F5BD92D02CD614FF4807C56E0012A0A
:1036900007D08C88B4F5807FE2D11946FFF7C8FFC8
:1036A0002CE18C7C0CB1022CDAD18C79002CD7D196
:1036B00000EB4314D4F80C5525F07005C4F80C55F4
:1036C000CEE7CC7824B18C8ACC614FF0010C3CE081
:1036D0008C7C012C06D0012A26D00C6ACC614FF0DC
:1036E000010C32E00C6ABC2C0FD98C8ACC610C62C4
:1036F000CC68013C012C03D90124CC60A44624E011
:103700000224CC604FF0010C1FE0CC61CC68013C7E
:10371000012C04D90424CC604FF0010C15E00324E3
:10372000CC604FF0010C10E00D6A8C8AA542D4D910
:10373000CC614FF0010C08E04FF0010CCD78002D6A
:1037400062D08C8A04FB0CF4CC61CC69C4F3120403
:10375000604D05EACC452C4391F816C04FEA4C7CED
:103760000CF0C04C00EB431303F5A06E44EA0C04CC
:10377000CEF8104012B18C69CEF8144000F5806587
:10378000AC68D3F8006526F00056C3F80065D3F89E
:1037900000656FEA040C4FEA4C7C0CF0005C46EAD2
:1037A0000C06C3F800658C79012C2FD00024CEF8CC
:1037B0000440D3F800450394039C24F08044039410
:1037C000CC78002C7FD0039C44F400440394039CE9
:1037D00044F000440394039CC3F80045002A40F0E1
:1037E0008D80CB78002B40F089800B6A002B00F095
:1037F0008580CA79002A40F081808A7C032A76D8A5
:10380000DFE802F06A7F6A7FCC619EE74E7C0C7C29
:1038100044EAC61444F00044CEF80440DEF80C40FC
:1038200044F06004CEF80C40CC79012C12D08C7C92
:10383000012C1FD0032C1DD08C7C012CB9D1CC784D
:10384000002CB6D1CC68013C032CB2D8DFE804F0E0
:103850001F262D34CC78002CE9D1DEF8044044F446
:103860008034CEF80440DEF80C4044F04004CEF83A
:103870000C40DCE7CC79012CDED1CC78012CDBD1FB
:10388000DEF8044044F48034CEF80440D4E7DEF897
:10389000044044F40044CEF804408AE7DEF80440D3
:1038A00044F00E04CEF8044083E7DEF8044044F40C
:1038B0008044CEF804407CE7DEF8044044F4404401
:1038C000CEF8044075E7039C24F4004403947EE79B
:1038D000000004400000F81F0333C26A92B2C3F331
:1038E0008F039A4203D2836943F02003836100234C
:1038F00000930B8C4A788969FFF70DFC002004B017
:1039000070BD03332A6992B2C3F38F039A42EED299
:10391000836943F080638361E9E700BF30B583B01A
:10392000044600230193FFF7A8FB10212046FFF770
:10393000AAFB054600B101252046FFF7C9FB00B1EF
:10394000012500220AE004EB4211D1F8003523F0F2
:10395000802343F08043C1F8003501320F2AF2D9A9
:10396000002100E001310F2916D804EB411000F5C9
:10397000A062D0F8003523F4004343F04043C0F880
:103980000035019B01330193019BB3F57A7FE9D8A0
:103990001368002BF5DBE5E74FF0FF33C4F8143470
:1039A00063612046FFF763FB284603B030BD00008B
:1039B000002800F05E8270B582B0044603680F2BC9
:1039C00039D8236813F0010F4DD063682BB1B3F5DC
:1039D000803F02D0B3F5A02F32D1804B9B6803F01B
:1039E0000C03042B36D07D4B9B6803F00C03082B93
:1039F0002BD06368B3F5803F5FD0B3F5A02F62D0C2
:103A0000764B1A6822F480321A601A6822F48022F7
:103A10001A606368002B60D001F000FC05466F4B14
:103A20001B6813F4003F1ED101F0F8FB401B642813
:103A3000F5D9032024E2E6216948FCF739FDC0E707
:103A4000EB216748FCF734FDC7E7644B5B6813F470
:103A5000800FCED0614B1B6813F4003F03D0636826
:103A6000002B00F00882236813F0020F66D0E36891
:103A7000012B41D823691F2B44D8584B9B6813F066
:103A80000C0F4AD0554B9B6803F00C03082B3FD01A
:103A9000E368002B77D0534B01221A6001F0BEFB84
:103AA00005464E4B1B6813F0020F63D101F0B6FBC5
:103AB000401B0228F5D90320E2E1484A136843F489
:103AC00080331360A5E7454B1A6842F480221A60E0
:103AD0001A6842F480321A609BE701F09FFB0546AA
:103AE0003E4B1B6813F4003FBDD001F097FB401B19
:103AF0006428F5D90320C3E140F21D113848FCF7D2
:103B0000D7FCB7E74FF48F713548FCF7D1FCB4E729
:103B1000324B5B6813F4800FBAD1304B1B6813F043
:103B2000020F03D0E368012B40F0A7812B4A1368F2
:103B300023F0F803216943EAC1031360236813F0FB
:103B4000080F51D06369012B2FD863699BB3254BB4
:103B50000122C3F8802E01F061FB05461F4B5B6F0D
:103B600013F0020F40D101F059FB401B0228F5D998
:103B7000032085E1194A136823F0F803216943EA19
:103B8000C1031360DAE7174B00221A6001F046FB0D
:103B90000546124B1B6813F0020FCFD001F03EFB1D
:103BA000401B0228F5D903206AE14FF4AF710C489D
:103BB000FCF77EFCC9E70B4B0022C3F8802E01F016
:103BC0002DFB0546054B5B6F13F0020F0CD001F087
:103BD00025FB401B0228F5D9032051E100380240A3
:103BE0005C3D040800004742236813F0040F7CD0BA
:103BF000A368012B01D9052B38D1A54B1B6C13F001
:103C0000805F39D100230193A14B1A6C42F080529E
:103C10001A641B6C03F080530193019B01259D4B9B
:103C20001B6813F4807F29D0A368012B3AD0052BA1
:103C30003ED0974B1A6F22F001021A671A6F22F0DA
:103C400004021A67A368002B3CD001F0E7FA06468D
:103C50008F4B1B6F13F0020F45D101F0DFFA801B71
:103C600041F288339842F3D9032009E14FF4C5713A
:103C70008948FCF71DFCC0E70025D0E7854A13689A
:103C800043F48073136001F0C9FA0646814B1B6848
:103C900013F4807FC8D101F0C1FA801B0228F5D946
:103CA0000320EDE07A4A136F43F001031367C9E77D
:103CB000774B1A6F42F004021A671A6F42F0010242
:103CC0001A67BFE701F0AAFA0646714B1B6F13F0A3
:103CD000020F08D001F0A2FA801B41F2883398420B
:103CE000F3D90320CCE0002D3CD1A369022B3FD8AF
:103CF000A369002B00F0C380654A926802F00C02B1
:103D0000082A00F09180022B7AD1E36913B1B3F550
:103D1000800F33D1236A023B3D2B35D8636A323B97
:103D2000B3F5BF7F36D8A26A082A39D84FF4AA73F0
:103D3000D34013F0010F33D0E36A023B0D2B35D88B
:103D4000564B00221A6601F069FA0546504B1B6873
:103D500013F0007F30D001F061FA401B0228F5D942
:103D600003208DE04A4A136C23F080531364BCE7B0
:103D700040F2CD114848FCF79BFBB9E74FF4EB71DB
:103D80004548FCF795FBC5E740F2D7114248FCF7E0
:103D90008FFBC3E74FF4EC713F48FCF789FBC2E7A8
:103DA00040F2D9113C48FCF783FBC5E74FF4ED71B5
:103DB0003948FCF77DFBC3E7E369226A1343626A73
:103DC00043EA8213A26A5208013A43EA0243E26AD2
:103DD00043EA02632E4A5360304B01221A6601F017
:103DE0001DFA04462A4B1B6813F0007F06D101F030
:103DF00015FA001B0228F5D9032041E000203FE01E
:103E0000264B00221A6601F009FA0446204B1B6873
:103E100013F0007F06D001F001FA001B0228F5D94B
:103E200003202DE000202BE0012B2BD0184B5B68EA
:103E300003F48001E269914226D103F03F02216A36
:103E40008A4223D1616A47F6C0721A40B2EB811FE1
:103E500026D103F44031A26A5208013AB1EB024F75
:103E600020D103F07063E26AB3EB026F1CD1002033
:103E700006E001207047012002E0012000E0002060
:103E800002B070BD0120FBE70120F9E70120F7E750
:103E900000380240007000405C3D040800004742CA
:103EA0000120EDE70120EBE70120E9E708B5334BFE
:103EB0009B6803F00C03042B5BD0082B5BD12F4BCA
:103EC0005A6802F03F025B6813F4800F2CD02B4B32
:103ED0005868C0F388104FEA401CBCEB000C6EEB36
:103EE0000E0E4FEA8E1343EA9C634FEA8C11B1EB3E
:103EF0000C0163EB0E03DB0043EA5173C90011EBC5
:103F0000000C43F10003590200234FEA4C2041EA20
:103F1000DC51FCF79DF9194B5B68C3F30143013396
:103F20005B00B0FBF3F008BD144B5868C0F3881079
:103F30004FEA401CBCEB000C6EEB0E0E4FEA8E13EA
:103F400043EA9C634FEA8C11B1EB0C0163EB0E0367
:103F5000DB0043EA5173C90011EB000C43F100038D
:103F6000990200234FEA8C2041EA9C51FCF770F93A
:103F7000D1E70348D7E70348D5E700BF0038024040
:103F800000127A000024F400002800F0FA8070B5D6
:103F90000D4604460368013B0E2B32D80F2D36D850
:103FA0007C4B1B6803F00F03AB4208D2EBB2794A9B
:103FB0001370136803F00F03AB4240F0E4802368F2
:103FC00013F0020F3ED013F0040F04D0724A93682E
:103FD00043F4E0539360236813F0080F04D06E4A53
:103FE000936843F460439360A36823B3C02B22D04B
:103FF00016D8A02B1FD010D8802B1CD0902B1AD0F5
:1040000014E040F25A216548FCF752FAC6E740F244
:104010005B216248FCF74CFAC2E7B02B0BD005E0FD
:10402000E02B08D0F02B06D0D02B04D040F27E211C
:104030005A48FCF73DFA584A936823F0F003A16808
:104040000B439360236813F0010F3CD06368032B8C
:1040500025D86368012B28D09A1E012A2CD94E4AF4
:10406000126812F0020F00F090804B498A6822F02B
:10407000030213438B6001F0D1F80646464B9B6860
:1040800003F00C036268B3EB820F1CD001F0C6F89A
:10409000801B41F288339842F0D9032064E040F25B
:1040A00085213E48FCF704FAD3E73B4A126812F434
:1040B000003FDAD1012057E0374A126812F0007F42
:1040C000D3D1012050E0334B1B6803F00F03AB4208
:1040D00007D9EAB22F4B1A701B6803F00F03AB42EB
:1040E00055D1236813F0040F14D0E3685BB1B3F526
:1040F000805F08D0B3F5A05F05D0B3F5C05F02D0F4
:10410000B3F5E05F31D1244A936823F4E053E168CA
:104110000B439360236813F0080F15D023695BB13C
:10412000B3F5805F08D0B3F5A05F05D0B3F5C05FED
:1041300002D0B3F5E05F1ED1174A936823F46043C1
:10414000216943EAC1039360FFF7B0FE124B9B68FD
:10415000C3F30313124AD35CD840124B1860124BBE
:104160001868FCF741FF002070BD40F2C3210B48E6
:10417000FCF79EF9C7E740F2CA210848FCF798F916
:10418000DAE7012070470120EEE70120ECE701208B
:10419000EAE700BF003C0240003802405C3D0408F2
:1041A000984804080800002004000020014B18680B
:1041B000704700BF0800002008B5FFF7F7FF044B69
:1041C0009B68C3F38223034AD35CD84008BD00BF79
:1041D000003802409048040808B5FFF7E7FF044B99
:1041E0009B68C3F34233034AD35CD84008BD00BF89
:1041F00000380240904804080F2303600B4B9A6874
:1042000002F0030242609A6802F0F00282609A684B
:1042100002F4E052C2609B68DB0803F4E0530361E0
:10422000034B1B6803F00F030B607047003802401C
:10423000003C024030B583B004460368013B7E2B4E
:104240001CD8236813F0430F00F09D806368323B55
:10425000B3F5BF7F18D8974B00229A6600F0DEFFB7
:104260000546954B1B6813F0006F13D000F0D6FF86
:10427000431B022BF5D9032003B030BD40F69A0151
:104280008E48FCF715F9DCE740F6A5018B48FCF7F2
:104290000FF9E0E7236813F0010F0BD0A368023B8E
:1042A000052B52D86268A3681B0743EA8213824A2F
:1042B000C2F88430236813F0020F1DD0E368023B7C
:1042C0000D2B48D8E369013B1F2B4AD87A4AD2F814
:1042D00084106068E3681B0643EA801301F0E04144
:1042E0000B43C2F88430D2F88C3023F01F03E1690D
:1042F00001390B43C2F88C30236813F0400F12D001
:10430000E368023B0D2B32D8A368023B052B34D85F
:104310006268E3681B0643EA8213A26843EA0273F9
:10432000654AC2F88430634B01229A6600F076FF3A
:104330000546614B1B6813F0006F24D100F06EFF3F
:10434000401B0228F5D9032096E740F6BB015B48E5
:10435000FCF7AEF8A6E740F6C8015848FCF7A8F805
:10436000B0E740F6C9015548FCF7A2F8AEE740F6C1
:10437000DA015248FCF79CF8C6E740F6DB014F48EB
:10438000FCF796F8C4E7236813F00C0F00F0988050
:104390002369323BB3F5BF7F11D8464B00221A6721
:1043A00000F03CFF0546444B1B6813F0005F0CD047
:1043B00000F034FF401B0228F5D903205CE740F6EB
:1043C000FA013E48FCF774F8E7E7236813F0040F9E
:1043D0001ED06369023B0D2B54D8236A013B1F2B6F
:1043E00056D8354AD2F88810206963691B0643EA1B
:1043F000801301F0E0410B43C2F88830D2F88C30D2
:1044000023F4F853216A013943EA0123C2F88C30BE
:10441000236813F0080F23D0A369023B052B3DD876
:10442000636A43B1B3F5803F05D0B3F5003F02D0D6
:10443000B3F5403F38D1204AD2F88830216903F0E3
:10444000706343EA8113A16943EA0173C2F88830BB
:10445000D2F88C3023F44033616A0B43C2F88C30BD
:10446000144B01221A6700F0D9FE0546124B1B6857
:1044700013F0005F24D100F0D1FE401B0228F5D9D3
:104480000320F9E640F60F110C48FCF711F8A4E7F9
:104490004FF411610948FCF70BF8A2E740F61F1131
:1044A0000648FCF705F8BBE74FF412610348FBF739
:1044B000FFFFC0E70000474200380240943D040877
:1044C000236813F0200F00F0D080A36AB3F5807F3B
:1044D00079D0B3F5007F76D0784A934273D002F555
:1044E000803293426FD002F5803293426BD002F556
:1044F0008032934267D002F58032934263D002F556
:10450000803293425FD002F5803293425BD002F555
:104510008032934257D002F58032934253D002F555
:10452000803293424FD002F5803293424BD002F555
:104530008032934247D002F58032934243D002F555
:10454000803293423FD002F5803293423BD002F555
:104550008032934237D002F58032934233D002F555
:10456000803293422FD002F5803293422BD002F555
:104570008032934227D002F58032934223D002F555
:10458000803293421FD002F5803293421BD002F555
:104590008032934217D002F58032934213D002F555
:1045A000803293420FD002F5803293420BD002F555
:1045B0008032934207D002F58032934203D002F555
:1045C000803293421FD1002301933D4B1A6C42F07D
:1045D00080521A641B6C03F080530193019B394A8B
:1045E000136843F48073136000F018FE0546354BE2
:1045F0001B6813F4807F0CD100F010FE401B0228D2
:10460000F5D9032038E640F63F112F48FBF750FF5D
:10461000D9E72B4B1B6F13F4407314D0A26A02F43A
:1046200040729A420FD0264B1A6F22F440722749EB
:104630000120C1F8400E0020C1F8400E1A671B6F20
:1046400013F0010F1CD1A36A03F44072B2F5407F4E
:1046500027D01B4A936823F4F813936018490B6F13
:10466000A26AC2F30B0213430B67236813F0100F07
:1046700022D094F82C20164BC3F8E0210020FBE553
:1046800000F0CCFD05460E4B1B6F13F0020FDAD184
:1046900000F0C4FD401B41F288339842F3D9032057
:1046A000EAE507498A6822F4F81223F0704323F4FC
:1046B000407313438B60D1E70020DDE50003020067
:1046C0000038024000700040943D0408000047425A
:1046D000001047422DE9F04182B007460E46AA4B32
:1046E00098422BD003F58063984227D003F580636E
:1046F000984223D003F5806398421FD003F580636E
:1047000098421BD003F58063984217D003F580636D
:10471000984213D003F5806398420FD003F580636D
:1047200098420BD003F58063984207D003F580636D
:10473000984203D0AC219548FBF7BAFE33689AB291
:1047400012B1B3F5803F03D3AD219048FBF7B0FE23
:104750007368B3F5041F1BD00DD8B3F5881F17D0AD
:1047600005D8032B14D9113B012B11D90CE0B3F55B
:10477000901F0DD008E0B3F5441F09D0B3F5481FD2
:1047800006D0B3F5081F03D0AE218048FBF790FE9A
:10479000002473E0F368032B13D8BA686100032385
:1047A0008B4022EA0302F3688B401343BB607A68B4
:1047B00022EA05027368C3F30013A34013437B602E
:1047C0006EE0C0217148FBF773FEE6E7D1216F4828
:1047D000FBF76EFE6CE0336913B1013B0E2B10D872
:1047E000E208083257F8220004F0070189000F237D
:1047F0008B4020EA030033698B40034347F82230A3
:1048000065E0DE216148FBF753FEE9E7092300E09C
:1048100000238B40034302325D4941F822305D4B57
:104820009A686FEA080322EA0801706810F4801F92
:1048300001D048EA0201574A9160D26803EA0201B6
:10484000706810F4001F01D048EA0201514AD1609B
:10485000526803EA0201706810F4003F01D048EA90
:1048600002014C4A516012681340716811F4803F94
:1048700001D048EA0203474A136001340F2C00F2CA
:1048800093800125A540336803EA050835EA030350
:10489000F3D1736803F00303013B012B7FF67AAF7A
:1048A000736803F00303032B0CD0B368022B8DD87D
:1048B000FA68610003238B4022EA0302B3688B404D
:1048C0001343FB60736803F00303022B83D03A6841
:1048D000610003238B4022EA0302736803F00303A1
:1048E0008B4013433B60736813F4403FC5D00023F3
:1048F0000193294B5A6C42F480425A645B6C03F476
:1049000080430193019BA208911C214B53F8210085
:1049100004F0030189000F238B4020EA03001A4BA7
:104920009F423FF475AF03F580639F4222D003F5A9
:1049300080639F4220D003F580639F421ED003F521
:1049400080639F421CD003F580639F421AD003F519
:1049500080639F4222D003F580639F4220D003F5FD
:1049600080639F421ED003F580639F423FF44EAFA9
:104970000A234EE701234CE702234AE7032348E7D3
:10498000042346E7052344E700000240CC3D040829
:1049900000380140003C014000380240062338E75F
:1049A000072336E7082334E702B0BDE8F08100BFF3
:1049B000F8B504460D46644B98422CD003F580634D
:1049C000984228D003F58063984224D003F5806391
:1049D000984220D003F5806398421CD003F5806391
:1049E000984218D003F58063984214D003F5806391
:1049F000984210D003F5806398420CD003F5806391
:104A0000984208D003F58063984204D04FF4977120
:104A10004E48FBF74DFD00232AE0092600E0002662
:104A200006FA01F1814273D020685E000321B14093
:104A300020EA01002060D808083054F8206003F014
:104A4000070E4FEA8E0E4FF00F0C0CFA0EFC26EA02
:104A50000C0644F82060E06820EA0100E06060682D
:104A600020EA02026260A26822EA0102A260013327
:104A70000F2B68D801229A4002EA050C32EA0501A0
:104A8000F5D14FEA930E0EF10200314951F82000A2
:104A900003F0030189000F2606FA01F738402A4E79
:104AA000B442BCD006F58066B44221D006F58066DB
:104AB000B4421FD006F58066B4421DD006F580666C
:104AC000B4421BD006F58066B44219D006F5806664
:104AD000B44217D006F58066B44215D006F580665C
:104AE000B44213D006F58066B44296D00A2697E702
:104AF000012695E7022693E7032691E704268FE730
:104B000005268DE706268BE7072689E7082687E72F
:104B10001049086820EA0C000860486820EA0C0088
:104B20004860C86820EA0C00C860886820EA0C0069
:104B30008860074E0EF1020156F8210020EA0700B6
:104B400046F8210070E7F8BD00000240CC3D0408A3
:104B500000380140003C014070B5054614460E4641
:104B600021B1012C08D86CB1AE6170BD40F29D112D
:104B70000648FBF79DFCF4E74FF4CF710348FBF7C1
:104B800097FCF0E73604AE61EFE700BFCC3D0408C8
:104B900038B505460C4641B16B6904EA030224EAC4
:104BA000030444EA0244AC6138BD4FF4DB710248AF
:104BB000FBF77EFCF0E700BFCC3D040810B40368AF
:104BC000D9B210390A4AA2FB01421209094CA25C6F
:104BD000C2655F2907D96FF3090304338365806DCC
:104BE0005DF8044B70476FF309038365F7E700BF77
:104BF000ABAAAAAA88480408836A826992B9012BE1
:104C00000AD0022B02D00BB100207047C36A13F008
:104C1000807F28D100207047C36AB3F1C07F24D0C1
:104C200000207047B2F5005F09D0022B25D9032B75
:104C300025D1C36A13F0807F23D100207047032B56
:104C400003D8DFE803F01404140A00207047C36A95
:104C500013F0807F0DD100207047C36AB3F1C07F8D
:104C600009D00020704701207047012070470120C3
:104C700070470120704701207047012070470020D5
:104C8000704701207047000070B5044600F0C6FA76
:104C9000002C00F03E8105462368954A934231D0AE
:104CA000183293422ED0183293422BD018329342AE
:104CB00028D01832934225D01832934222D018328D
:104CC00093421FD0183293421CD002F55672934281
:104CD00018D01832934215D01832934212D018329D
:104CE00093420FD0183293420CD01832934209D01D
:104CF0001832934206D01832934203D0B7217D4830
:104D0000FBF7D6FB6368A3B1B3F1007F11D0B3F119
:104D1000806F0ED0B3F1C06F0BD0B3F1006F08D02D
:104D2000B3F1206F05D0B3F1406F02D0B3F1606FE3
:104D30006DD1A3681BB1402B01D0802B6CD1E368EF
:104D4000B3F5007F01D0002B6BD12369B3F5806FE1
:104D500001D0002B6AD163692BB1B3F5006F02D08B
:104D6000B3F5805F67D1A3692BB1B3F5005F02D0C3
:104D7000B3F5804F64D1E36923B1B3F5807F01D0EF
:104D8000202B62D1236A43B1B3F5803F05D0B3F540
:104D9000003F02D0B3F5403F5CD1636A0BB1042BF6
:104DA0005DD1636AC3B1A36A032B5DD8E36A43B1E3
:104DB000B3F5000F05D0B3F1807F02D0B3F1C07F0F
:104DC00057D1236B43B1B3F5001F05D0B3F5800F66
:104DD00002D0B3F5C00F51D1022384F8353000233F
:104DE00084F834302268136823F0010313602368C9
:104DF0001A6812F0010F46D000F010FA401B052887
:104E0000F5D920236365032084F8350070BDB821EF
:104E10003848FBF74DFB8CE7B9213648FBF748FBD8
:104E20008DE7BA213348FBF743FB8EE7BB213148BE
:104E3000FBF73EFB8FE7BC212E48FBF739FB92E7DF
:104E4000BD212C48FBF734FB95E7BE212948FBF731
:104E50002FFB97E7BF212748FBF72AFB9DE7C021DF
:104E60002448FBF725FB9CE7C5212248FBF720FBE4
:104E70009CE7C6211F48FBF71BFBA2E7C7211D4883
:104E8000FBF716FBA8E71A681B4911406268A06887
:104E90000243E06802432069024360690243A0695B
:104EA0000243E0690243206A02430A43616A04291B
:104EB00024D01A602668756925F00705636A1D43CA
:104EC000042B07D1A36A1D43E36A1BB12046FFF7F9
:104ED00093FEC0B975612046FFF770FEE26D3F2377
:104EE0009340836000206065012384F835308DE7AE
:104EF00010600240043E04083F8010F0E16A206B1D
:104F000001430A43D5E740236365012084F8350057
:104F10007CE701207AE700BF002864D038B504465A
:104F200090F83530D8B2022B5CD023682F4A9342D8
:104F300032D0183293422FD0183293422CD01832EC
:104F4000934229D01832934226D01832934223D06C
:104F50001832934220D0183293421DD002F5567277
:104F6000934219D01832934216D01832934213D07C
:104F70001832934210D0183293420DD01832934217
:104F80000AD01832934207D01832934204D040F22C
:104F900047111748FBF78CFA2268136823F00103C6
:104FA0001360236800251D6023685D6023689D6091
:104FB0002368DD6023681D61236821225A61204631
:104FC000FFF7FCFDE56325646564A564E56425657C
:104FD000E26D3F2393408360656584F8355084F823
:104FE0003450284638BD0120704700BF1060024091
:104FF000043E040870B50446866D00F00FF994F87D
:105000003530022B06D080236365002384F83430CA
:10501000012070BD05462268136823F01603136053
:105020002268536923F080035361236CE3B1226843
:10503000136823F0080313602268136823F0010348
:10504000136023681B6813F0010F11D000F0E6F81D
:10505000431B052BF5D920236365032084F8350015
:10506000002384F83430D4E7A36C002BDFD1E3E7CE
:10507000E26D3F239340B360012384F83530002074
:1050800084F83400C5E790F83530022B03D0802334
:10509000436501207047052380F8353002681368A6
:1050A00023F001031360002070470000002807DB95
:1050B00000F01F02400901239340024A42F82030C9
:1050C000704700BF00E100E0002808DB0901C9B219
:1050D00000F1604000F5614080F80013704700F077
:1050E0000F000901C9B2014B1954704714ED00E0DB
:1050F00000B500F00700C0F1070CBCF1040F28BF99
:105100004FF0040C031D062B0FD9C31E4FF0FF3EBA
:105110000EFA0CF021EA000199400EFA03FE22EA91
:105120000E0241EA02005DF804FB0023EEE70000F6
:1051300010B50446C31E042B0FD80A4AD36823F4C3
:10514000E0631B041B0C240204F4E064234343F0DB
:10515000BF6343F40033D36010BD90210248FBF7D6
:10516000A7F9EAE700ED00E03C3E040870B506460A
:105170000C4615460F2A0ED80F2C11D80B4BD868A9
:105180002A462146C0F30220FFF7B2FF014630460F
:10519000FFF79AFF70BDA8210548FBF789F9EBE7F7
:1051A000A9210348FBF784F9E8E700BF00ED00E020
:1051B0003C3E040810B5041E03DB2046FFF776FFD3
:1051C00010BDBC210148FBF773F9F6E73C3E04082B
:1051D00008B50B4B1A6842F400721A601A6842F460
:1051E00080621A601A6842F480721A600320FFF726
:1051F0009FFF0020FBF7F8FEFBF7D4FE002008BD60
:10520000003C0240034A1168034B1B780B441360B7
:10521000704700BF8833002000000020014B186851
:10522000704700BF8833002038B50446FFF7F6FF0B
:105230000546B4F1FF3F02D0044B1B781C44FFF736
:10524000EDFF401BA042FAD338BD00BF0000002094
:10525000A0B110B504460268094B9A4203D06821F8
:105260000848FBF725F963791BB10123637100201E
:1052700010BD23712046FBF777FAF6E7012070474F
:1052800000300240743E0408002851D010B5044696
:105290000268284B9A4203D0F7212748FBF708F908
:1052A000636843B1B3F5803F05D0B3F5003F02D04A
:1052B000B3F5403F27D1A368042B29D8E368B3F5A1
:1052C000804F2AD294F8393063B3022384F83930FE
:1052D0002268136823F4403361680B43136022682B
:1052E000536B23F00703A1680B4353632268136CCD
:1052F0006FF30D03E1680B4313640020E0630123A7
:1053000084F8393010BDF8210B48FBF7D1F8D2E70B
:10531000F9210948FBF7CCF8D0E7FA210648FBF75A
:10532000C7F8CFE784F838302046FBF755FACCE7CA
:105330000120704700B00240AC3E0408704770473F
:1053400070B5044603685D681E6815F0010F16D03D
:1053500016F4807F13D01A6822F480721A60C36B2F
:1053600043F00103C363036801229A60042380F8B9
:105370003930002380F83830436903B1984715F07D
:10538000200F18D016F4005F15D02268136823F49C
:1053900000531360236820229A60E36B43F00203FA
:1053A000E363042384F83930002384F838306369D8
:1053B0000BB12046984715F0080F18D016F4006F6F
:1053C00015D02268136823F4006313602368082251
:1053D0009A60E36B43F00403E363042384F83930F9
:1053E000002384F8383063690BB12046984715F0E4
:1053F000040F02D016F4806F20D115F0020F16D0E2
:1054000016F4007F13D02268136823F4007313602E
:10541000236802229A60E36BE363012384F8393046
:10542000002384F8383023690BB12046984715F0E3
:10543000100F02D016F4805F0CD170BD2268136883
:1054400023F480631360236804229A602046FFF7E8
:1054500075FFD2E72268136823F480531360236832
:1054600010229A60E36BE363012384F83930002350
:1054700084F838302046FFF762FFDEE738B504468F
:105480000D46012948D804EB05139B69B3F5804FFD
:1054900048D26368B3F5403F0BD004EB0513DB69DA
:1054A0000A2B45D8636823B1AB1C1B01E358022BC0
:1054B00044D894F83830012B6FD0012384F8383069
:1054C000022384F8393004EB0513DA69AB1C1B01A5
:1054D000E35842EA0343093A012A35D9AA1C04EBEE
:1054E0000212526843EA0263002D3ED12168486AE5
:1054F0002B4A02401A434A62226804EB0513996959
:105500009161DB69093B012B26D9012384F83930ED
:10551000002084F8380038BD40F2C9612148FAF70C
:10552000C7FFB0E740F2CA611E48FAF7C1FFB0E713
:1055300040F2CD611B48FAF7BBFFB3E74FF4DA61E5
:105540001848FAF7B5FFB4E7AA1C04EB0212526838
:1055500002F07F421343C7E7023504EB05156B6881
:10556000226823F07F439362CFE72168C8690C4A21
:1055700002401A43CA61226804EB0513996911615C
:10558000DB69093B012BC0D8023504EB05156B68BC
:10559000226823F07F431362B7E70220BBE700BF16
:1055A000F0FFFC00AC3E040838B505460C46594BEC
:1055B000984204D040F29E415748FAF779FF236899
:1055C000012B50D86368032B53D8A3681BB1042B5D
:1055D00001D0082B53D1E3681BB1102B01D0202B35
:1055E00053D123690BB1402B55D16369802B05D072
:1055F000B3F5807F02D0B3F5C07F52D1A36913B158
:10560000B3F5007F53D1E3692BB1B3F5006F02D03E
:10561000B3F5406F51D1236A13B1B3F5805F52D116
:10562000636A2BB1B3F5005F02D0B3F5804F50D160
:105630002368002B53D12A686FF30E026368A168B8
:105640000B43E1680B4321690B4361690B43A1697B
:105650000B43E1690B43216A0B43616A0B4313431C
:105660002B60002038BD40F29F412B48FAF720FF05
:10567000A8E74FF494612848FAF71AFFA5E740F22B
:10568000A1412548FAF714FFA5E740F2A2412248BC
:10569000FAF70EFFA5E740F2A3411F48FAF708FF0B
:1056A000A3E740F2A4411C48FAF702FFA6E740F244
:1056B000A5411948FAF7FCFEA5E740F2A6411648B5
:1056C000FAF7F6FEA7E740F2A7411348FAF7F0FE13
:1056D000A6E74FF495611048FAF7EAFEA8E72B68B1
:1056E00023F4F843E269216A0A43616A0A431343D7
:1056F0002B606A686FF30E026368A1680B43E16870
:105700000B4321690B4361690B43A1690B431343AD
:105710006B60A6E7400100A0E43E040870B50546B2
:105720000C4616464F4B984204D040F2DD414E489D
:10573000FAF7BEFE2368013B0F2B3CD86368013BA0
:105740000F2B3ED8A368013B0F2B40D8E368013BE9
:105750000F2B42D82369013B0F2B44D86369013BCF
:105760000F2B46D8A369013B0F2B48D8012E4CD8EC
:10577000002E50D1AA6802F070422368013B616894
:10578000013943EA0113A168013943EA0123E168C1
:10579000013943EA01332169013943EA014361696F
:1057A000013943EA0153A169013943EA0163134313
:1057B000AB60002070BD40F2DE412B48FAF778FE66
:1057C000BCE740F2DF412848FAF772FEBAE74FF42F
:1057D0009C612548FAF76CFEB8E740F2E1412248A7
:1057E000FAF766FEB6E740F2E2411F48FAF760FEBC
:1057F000B4E740F2E3411C48FAF75AFEB2E740F240
:10580000E4411948FAF754FEB0E740F2E541164882
:10581000FAF74EFEACE7AB6823F4700323F4704351
:10582000E268511E6269013A120542EA01321343ED
:10583000AB60EA6802F070422368013B616801399D
:1058400043EA0113A168013943EA012321690139BF
:1058500043EA0143A169013943EA01631343EB6061
:10586000A7E700BF400100A0E43E040870B504466D
:105870000E4615462A4B984204D04FF4AC61294895
:10588000FAF716FE3368062B30D87268182A33D818
:10589000254BD34013F0010F2ED0B368013B0E2BE4
:1058A00030D8F368B3F5005F32D222696FF3150286
:1058B000336871680B43B168013943EA4113F168F9
:1058C00043EA412313432361FFF7A8FC0646A3697B
:1058D00013F0200F22D0B5F1FF3FF8D025B1FFF72C
:1058E0009DFC801BA842F2D9032018E040F26151D0
:1058F0000C48FAF7DDFDC8E740F262510948FAF7B3
:10590000D7FDCAE740F263510648FAF7D1FDC8E770
:1059100040F264510348FAF7CBFDC6E7002070BDA2
:10592000400100A0E43E04080001010138B504462E
:105930000D460C4B984204D040F286510A48FAF7C3
:10594000B7FDB5F5005F07D263696FF34D0343EA16
:1059500045036361002038BD40F287510248FAF7E1
:10596000A7FDF1E7400100A0E43E0408E0B138B52E
:105970000D46044690F82C308BB1022384F82C306D
:10598000214651F8040BFFF70FFE62682946206894
:10599000FFF7C4FE012384F82C30002038BD80F8C6
:1059A0002D30FAF7EDFFE8E70120704738B50446DF
:1059B00090F82C30D8B2022B19D00D46012801D016
:1059C000052813D1022384F82C3029462068FFF7DC
:1059D0004DFF2B68022B04D0012384F82C300020CB
:1059E00005E0052384F82C30002000E0012038BDBC
:1059F00010B5044690F82C30D8B2022B04D094F89D
:105A00002C30012B01D0012010BD022384F82C3052
:105A10002068FFF78BFF012384F82C300020F3E788
:105A2000002800F0338170B504460368994A934218
:105A30000CD002F58062934208D002F58062934256
:105A400004D040F2C9119448FAF732FD6368013B73
:105A5000924A93426ED8A36813B1B3F5804F6FD1C9
:105A6000E368B3F5806F71D22369B3F5804F02D03C
:105A7000B3F5404F70D16369012B73D8A36933F03C
:105A8000FE0375D1E3690BB1402B77D1236A0BB1CB
:105A9000802B79D194F83D30002B7BD0242384F8DF
:105AA0003D302268136823F00103136022681368F5
:105AB00043F4004313602268136823F40043136027
:105AC000FEF77AFB6268764B9A4269D8754B98422A
:105AD0008CBF00230123002B40F0DA807249A1FB28
